S01900004C45446D657373616765646973706C61792E737265635B
S11300000C942A000C9447000C9447000C9447006D
S11300100C9447000C9447000C9447000C94470040
S11300200C9447000C9447000C9447000C94470030
S11300300C9447000C9447000C9447000C94470020
S11300400C9447000C9447000C9447000C94470010
S11300500C94470011241FBECFE5D4E0DEBFCDBF12
S113006012E0A0E6B0E0E6E3F8E002C005900D92ED
S1130070A23FB107D9F712E0A2EFB2E001C01D928E
S1130080A23FB107E1F70E9449000C9419040C94B3
S11300900000CF93DF93CDB7DEB7CB58D1400FB676
S11300A0F894DEBF0FBECDBF80E884BF84BF8FE16C
S11300B087BB8FEF81BB9EEF94BB8ABBDE01AF5A37
S11300C0BE4FE0E6F0E08FE001900D928150E1F741
S11300D0FE01EF5AFE4FDF010D900020E9F79D016C
S11300E0215030402E1B3F0BB9017901EE0CFF1C4F
S11300F0E20EF31EEE0CFF1CC701869618161906B5
S113010094F4FE013196C701880F991F4DE450E025
S11301104C0F5D1F840F951F4FEF50E04193519397
S1130120E817F907D9F7161617060CF0B0C0FE0148
S1130130EF5AFE4F6901CE0EDF1E43E150E00F2E51
S1130140F1E0AF2EFCEFBF2EF02D0FEF10E00F2EDD
S1130150F9EB8F2EFEEF9F2EF02D3F01D3012D9151
S11301603D0130E0C901815490408A31910588F500
S1130170C901880F991F820F931FBC01660F771F57
S1130180CB01865891409B01205831408217930738
S11301900CF079C0880F991FDC01A754BE4FCA0127
S11301A0880F991F21E030E02C0F3D1F280F391FC5
S11301B0CB01880F991F880D991D6D917D91F901CF
S11301C0619371939F01A817B907B9F74A5F5F4F0D
S11301D05AC02032310511F5CA01880F991F21E058
S11301E030E02C0F3D1F820F931FDC010D931C93F5
S11301F0CA010196880F991F820F931FFC01118376
S11302000083CA010296880F991F820F931FDC0195
S113021011961C930E934D5F5F4F35C0C9018156F3
S113022090408A31910578F5C901880F991F820F92
S1130230931FBC01660F771FCB01865492409B012C
S11302402054324082179307F4F4880F991FDC017D
S1130250AF57BF4FCA01880F991F21E030E02C0F20
S11302603D1F280F391FCB01880F991F8A0D9B1D35
S11302706D917D91F901619371939F01A817B9075D
S1130280B9F74A5F5F4F6C147D0409F067CF97019B
S11302902D5E3F4FC857DE4F39832883C858D1405D
S11302A0A0E0B0E049E750E042505040C458DE4F6F
S11302B059834883CC57D14089E790E00897C658C2
S11302C0DE4F99838883CA57D1400C96C258DE4FBB
S11302D099838883CE57D140E9E7F0E03497C0583A
S11302E0DE4FF983E883C058D14029E730E0265037
S11302F03040CE57DE4F39832883C258D140C65888
S1130300DE4F48815981CA57D140425F5F4FCC5775
S1130310DE4F59834883C458D140C658DE4F888184
S11303209981CA57D1400A96CA57DE4F9983888368
S1130330C658D1404DC1CE59DE4FA881B981C256AD
S1130340D1408C9182BBA9E7B0E03C9138BB1BBA89
S113035015BAB6EABA95F1F700C0C05ADE4F488123
S11303605981C056D140C657DE4F59834883CA5875
S1130370D140CC59DE4FA881B981C456D1408C916B
S113038082BBC458DE4FA881B981CC57D1402C918F
S113039028BB1BBA15BAB6EABA95F1F700C0CA5918
S11303A0DE4FA881B981C656D1408C9182BBC0581A
S11303B0DE4FA881B981C058D1409C9198BB1BBA2B
S11303C015BAB6EABA95F1F700C0C859DE4FA8814C
S11303D0B981C856D1408C9182BBCE57DE4FA881DB
S11303E0B981C258D1408C9188BB1BBA15BAB6EA00
S11303F0BA95F1F700C0C659DE4FA881B981CA5633
S1130400D1404C9142BBC658DE4FA881B981CA572E
S1130410D1404C9148BB1BBA15BAB6EABA95F1F76C
S113042000C0C459DE4FA881B981CC56D1405C913B
S113043052BB18BA3BBB15BAB6EABA95F1F700C07D
S1130440C259DE4FA881B981CE56D1405C9152BBCE
S113045018BA2BBB15BAB6EABA95F1F700C0C05961
S1130460DE4FA881B981C057D1405C9152BB18BA04
S11304709BBB15BAB6EABA95F1F700C0CE58DE4F69
S1130480A881B981C257D1405C9152BB18BA8BBBC9
S113049015BAB6EABA95F1F700C0CC58DE4FA88178
S11304A0B981C457D1405C9152BB18BA4BBB15BA41
S11304B0B6EABA95F1F700C0CA58DE4FA881B981EF
S11304C0C657D1404C9142BB18BA1BBAC258DE4F32
S11304D0A881B981CE57D1405C9155BBB6EABA9593
S11304E0F1F700C0D2014C9142BB18BA1BBACC57E9
S11304F0DE4FA881B981C458D1404C9145BBB6EABE
S1130500BA95F1F700C0D1016C9162BB18BA4BBB2C
S113051015BAB6EABA95F1F700C0C858DE4FA881FB
S1130520B981C857D1404C9142BB18BA5BBB15BACC
S1130530B6EABA95F1F700C0D3014C9142BB18BAA0
S1130540CA57DE4FA881B981C658D1404C914BBBE4
S113055015BAB6EABA95F1F700C0D5015C9152BB61
S113056018BA1BBA85BBB6EABA95F1F700C0D40134
S11305708C9182BB18BA1BBA95BBB6EABA95F1F74F
S113058000C0D6018C9182BB18BA1BBA25BBB6EA4F
S1130590BA95F1F700C0D7018C9182BB18BA1BBA87
S11305A035BBB6EABA95F1F700C0D8018C9182BB8D
S11305B018BA1BBA45BBB6EABA95F1F700C0319731
S11305C009F0B9CEC657DE4FA881B981CA58D140C7
S11305D0C857DE4FE881F981C858D140AE17BF072C
S11305E034F01E161F060CF023C1A0E0B0E0E4E1D5
S11305F0F0E0CD01880F991F21E030E02C0F3D1F62
S1130600280F391FCE59DE4F39832883C256D14073
S1130610AD014F5F5F4FC05ADE4F59834883C056C8
S1130620D140CA01880F991F21E030E02C0F3D1FF3
S1130630280F391FCC59DE4F39832883C456D14043
S1130640CD010296880F991F41E050E04C0F5D1FC9
S1130650480F591FCA59DE4F59834883C656D140A3
S1130660CD010396880F991F21E030E02C0F3D1F28
S1130670280F391FC859DE4F39832883C856D14003
S1130680CD010496880F991F41E050E04C0F5D1F87
S1130690480F591FC659DE4F59834883CA56D14063
S11306A0CD010596880F991F21E030E02C0F3D1FE6
S11306B0280F391FC459DE4F39832883CC56D140C3
S11306C0CD010696880F991F41E050E04C0F5D1F45
S11306D0480F591FC259DE4F59834883CE56D14023
S11306E0CD010796880F991F21E030E02C0F3D1FA4
S11306F0280F391FC059DE4F39832883C057D14092
S1130700CD010896880F991F41E050E04C0F5D1F02
S1130710480F591FCE58DE4F59834883C257D140E2
S1130720CD010996880F991F21E030E02C0F3D1F61
S1130730280F391FCC58DE4F39832883C457D14042
S1130740CD010A96880F991F41E050E04C0F5D1FC0
S1130750480F591FCA58DE4F59834883C657D140A2
S1130760CD010B96880F991F4424552443944C0EB5
S11307705D1E480E591ECD010C96880F991F222428
S1130780332423942C0E3D1E280E391ECD010D96C4
S1130790880F991F21E030E02C0F3D1F280F391FCF
S11307A0C858DE4F39832883C857D140CD010E96EF
S11307B0880F991F6624772463946C0E7D1E680E3F
S11307C0791ECD010F96880F991FAA24BB24A394E8
S11307D0AC0EBD1EA80EB91ECD014096880F991F00
S11307E08824992483948C0E9D1E880E991ECD0115
S11307F04196880F991FCC24DD24C394CC0EDD1EB2
S1130800C80ED91ECD014296880F991FEE24FF24ED
S1130810E394EC0EFD1EE80EF91ECD014396880FFD
S1130820991F01E010E00C0F1D1F080F191F83CD45
S1090830FFCFF894FFCF96
S11308366369656D20524F434B5320416E64009C9F
S1130846000100020004000800100020004000809F
S113085600B700AB00AB00AB00C300FF000300DB36
S113086600DB00DB00E700FF00C300BD00BD00BDE8
S113087600DB00FF00F300ED00ED00ED008100FF5A
S113088600C300AD00AD00AD00CB00FF00F700F7DC
S11308960001007700B700FF009B006D006D005D4E
S11308A6008300FF000100F700EF00EF00F100FFF6
S11308B600FD00ED004100FD00FD00FF00FB00FD12
S11308C600DD004300FF00FF008100F700E700DBC6
S11308D600FD00FF00FF007D000100FD00FF00FF9A
S11308E600C300BF00C300BF00C300FF008300DFD6
S11308F600BF00BF00C300FF00C700BB00BB00BBB6
S113090600C700FF000100B700B700B700CF00FF23
S113091600CF00B700B700B7000100FF00BF008397
S113092600DF00BF00DF00FF00DB00AD00AD00B557
S113093600DB00FF00DF008300DD00FD00FB00FF9D
S1130946008700FB00FB008700FB00FF008F00F719
S113095600FB00F7008F00FF00C300FD00C300FD8D
S113096600C300FF00BB00D700EF00D700BB00FFA9
S1130976009B00F700EF00DF00BF00FF00BB00B3E1
S113098600AB009B00BB00FF00C100AF006F00AFCF
S113099600C100FF0001006C0045005500BB00FFCC
S11309A60083007D007D007D00BB00FF0001007D0B
S11309B6007D00BB00C700FF0001006D006D007DD7
S11309C6007D00FF0001006F006F007F007F00FFC5
S11309D60083007D0075007500B300FF000100EF81
S11309E600EF00EF000100FF007D007D0001007DA7
S11309F6007D00FF0073007D0003007F007F00FF81
S1130A06000100EF00D700BB007D00FF000100FDE0
S1130A1600FD00FD00FD00FF000100BF00DF00BF78
S1130A26000100FF0001009F00EF00F3000100FF3A
S1130A360083007D007D007D008300FF00010077B8
S1130A4600770077008F00FF0083007D0075008328
S1130A5600FD00FF0001006F0067006B009D00FFB2
S1130A66009B006D006D006D00B300FF007F007FEA
S1130A760001007F007F00FF000300FD00FD00FD74
S1130A86000300FF000700FB00FD00FB000700FF5A
S1130A96000100FB00F700FB000100FF0039009392
S1130AA600EF0093003900FF003F00DF00E100DFA4
S1130AB6003F00FF00790075006D005D003D00FFFA
S1050AC600002A
S9030000FC
